:20E000008D0327FC39B6B00085012706B6B001847F394F398D243402810D270BB7B0010CB5
:20E02000799679917825100F798D0F860DB7B0018D08860AB7B0013502393402B6B00085DD
:20E040000227F935023910CE01EE966E8155260A9E6FA684811226026E848E02186F8330A9
:20E060000126FA8E02176F809F19A60243A702A10226063001630120F19F719F279F233060
:20E0800089FF389F211F148EE0D3CE0076C612BDE1B3CE00A7C604BDE1B3863997F0BDE4A8
:20E0A000BF8E00B59F8DCEEBD3C60AEF815A26FB8603B7B0008695B7B0008EE108BDF0E76E
:20E0C0008EE0CB9F6F8655976E200412BDE4D97EE4273B1040FF00EBD30C8426020C83B69B
:20E0E00000007EE1C47EE1C37EE0D27EEBD3804FC7525932E222E32F1DE2C2E1D300000071
:20E100000000000000000000003638303920455854454E4445442042415349430D28432994
:20E120002031393832204259204D4943524F534F46540D0D0034169E76DC789F6AD76C97AB
:20E140006D35960F738E00F4C601BDE000810826075A27EF301F20348115260A5A27E486A5
:20E1600008BDE01420F681031A012705810D260D4F3401BDF0A76F848E00F335818120257C
:20E18000C9817B24C5C1FA24C1A7805CBDE01420B92705BDEEC69F7A6E9F007A7EE5A89646
:20E1A000732603BDE0050F73975310260C6A97567EEE24A680A7C05A26F939399D8227FBD3
:20E1C0007EEA053B813A240A812026020E7C803080D039F3C5F439F3DE00ADF66AF6BFEEBC
:20E1E000D9EE0AEC86EE9FEE29EE15F76FF737F740F8B1F8E3F805FA6BF83FFF3DEE34EE01
:20E2000051EE58E19FEC77FA73FB33FB0379F11079F1077BF2177BF2DC7FF84850EA5E4696
:20E22000EA5D464FD247CF5245CDA7454C53C549C6444154C15052494ED44FCE494E505557
:20E24000D4454EC44E4558D44449CD524541C45255CE524553544F52C55245545552CE5312
:20E26000544FD0504F4BC5434F4ED44C4953D4434C4541D24E45D7455845C354524FCE54FF
:20E28000524F46C64445CC4445C64C494EC552454E55CD454449D4544142A854CF5355C2CC
:20E2A000544845CE4E4FD4535445D04F46C6ABADAAAFDE414EC44FD2BEBDBC46CE555349E8
:20E2C0004EC75347CE494ED44142D35553D2524EC45349CE504545CB4C45CE535452A456C1
:20E2E00041CC4153C3434852A44154CE434FD35441CE4558D04649D84C4FC7504FD35351C2
:20E30000D2484558A44C454654A45249474854A44D4944A4494E4B4559A44D45CD564152C7
:20E320005054D2494E5354D2535452494E47A4E4EDE638E695E695E695E6C6E692F06FE613
:20E34000F4E7A1E5BFE886EAD7E7DBE62DE5A1E672E5C3EEE0E5E8EEE7E5F9E4BDE191FAB8
:20E3600066FA67FCE2FC26FF81FD6CF8F24E46534E52474F4446434F564F4D554C4253445E
:20E38000442F304944544D4F534C535354434E4644414F444E494F464D4E4F494544535545
:20E3A000464E45204552524F520020494E20000D4F4B0D000D425245414B003064C6129FD2
:20E3C0000FA68480802615AE019F119E3B27099C1127099E0F3A20E59E119F3B9E0F4D39DC
:20E3E0008D17DE4133419E433001A68236029C4726F8DF45394F58D31FC3003A250810DF64
:20E400001710931725EEC60CBDE4D9BDF0ABBDF0FA8EE36D3A8D318D2F8EE3A2BDF0E796FE
:20E42000684C2703BDF510BDF0AB8EE3AFBDF0E7BDE143CEFFFFDF6825F69F839D7C27F0CF
:20E44000250BBDEF9C7EE576A6807EF0FCBDE7199E2B9FF1BDEF9CD7038D4C2512DC47A3CD
:20E4600084D31BDD1BEE843702A7809C1B26F896F3271CDC1BDD43DB038900DD41BDE3E0A3
:20E48000CE00EF3702A7809C4526F89E419F1B8D368D02209B9E19EC8427213304A6C02688
:20E4A000FCEF84AE8420F0DC2B9E19EE84270910A3022306AE8420F31A019F473926FB9E2F
:20E4C000196F806F809F1B9E19BDE66D9E279F23BDE5A19E1B9F1D9F1F8E00C99F0BAEE434
:20E4E00010DE216FE20F2D0F2E0F086E8486809708BDE73BBDE3BB326226049E0F3285C673
:20E5000009BDE3F5BDE69ADC683416C6A0BDE9FDBDE8D1BDE8CFD654CA7FD450D750108E43
:20E52000E5257EE9788EF210BDF35F9D8281A426059D7CBDE8CFBDF3B8BDE974DC3B340684
:20E54000868034021CAF8D609E839F2FA6802707813A27227EEA05A68197002772EC80DD73
:20E56000689F83968C270F865BBDE0149668BDF517865DBDE0149D7C8D0220C827294D108F
:20E580002A01B881FF270F819E22C9BEE0F6481F893A9D7C6E949D7C8197102714ED7EEA2E
:20E5A000059E19301F9F3339BDE005270A8103271281132703977339BDE00527FB20EE9D45
:20E5C0008220021A0126319E839F2F060032629E688CFFFF27069F299E2F9F2D8EE3B30D4D
:20E5E00000102AFE427EE41C260EC6209E2D1027FE169F839E299F6839272CBDEB6F340626
:20E600009E279D82270CBDE9FBBDEEC6301F9C7122181F10A3E125121F0383003A250B93AF
:20E620001B2507DF219F277EE4CC7EE4069D821027FE94BDE4CC20191F899D7CC1A027164A
:20E64000C1A12645C603BDE3F5DE839E6886A134528D037EE5449D82BDE7198D403001DC8E
:20E660002B10936822029E19BDE4AB2517301F9F833926FD86FF973BBDE3BB1F1481212786
:20E680000BC6048CC60E7EE4087EEA0535529F68DF838D068C8D069F8339C63A865FD701B4
:20E6A0005F9E831F98D6019701A68427EC3404A1E027E63001812227EA4C26023001818620
:20E6C00026E70C0420E3BDE8CF9D8281812705C6A2BDE9FD964F26130F048DB64D27BA9D0F
:20E6E0007C818426F50A042AF19D7C9D821025FF657EE57CBDEE94C681BDE9FD340281A124
:20E70000270481A026830A53260535047EE63A9D7C8D06812C27EF35849E749F2B2461809C
:20E72000309701DC2B811822DB58495849D32B5849DB018900DD2B9D7C20E2BDEAE09F3BAA
:20E74000C6AEBDE9FD96063402BDE8E4350246BDE8D610270C289E52DC2110A30224119C71
:20E760001B250DE684BDEC969E4DBDEDCC8E00569F4DBDEDFEDE4D9E3B3726A78410AF027D
:20E78000393F5245444F0D007EE408960927079E319F687EEA058EE780BDF0E79E2F9F83D8
:20E7A00039C6169E68300127DF8D01398122260BBDE9D2C63BBDE9FDBDF0EA8E00F36F8445
:20E7C0008D06C62CE7842016BDF0FABDF0F7BDE143240532647EE5CBC62E399E33864F9790
:20E7E000099F35BDEAE09F3B9E839F2B9E35A684260996092651BDF0FA8DCD9F839D7CD69C
:20E800000627239E8397018122270E301F4F9701BDE135863A9701862C9702BDECA7BDE975
:20E82000D7BDE7562006BDF45DBDF37E9D822706812C1026FF529E839F359E2B9F839D8226
:20E840002721BDE9FB209C9F83BDE69A30014D260AC606EE812741EC81DD31A68481862691
:20E86000E620989E35D6091026FD3AA68427068EE8757EF0E7393F45585452412049474E4A
:20E880004F5245440D0026049E742003BDEAE09F3BBDE3BB2704C60020471F143003BDF3B8
:20E8A0005FA66897549E3BBDF10DBDF37E3069BDF3E1E068270CAE6E9F68AEE8109F837E30
:20E8C000E54432E8129D82812C26F49D7C8DBD8D131CFE7D1A010D0625032A998C2B96C637
:20E8E000187EE4088D6E4F8C34043402C601BDE3F5BDE9B10F3F9D8280AD25138103240F16
:20E90000810149983F913F2564973F9D7C20E9D63F26331024006B8B072467990610270400
:20E920007789FF340248ABE08EE20D30863502A18424558D9C34028D299E3D3502261D4D10
:20E940001027006A204B0806598D098EE959D73F0F0620D99E837EE66D64EA7DA184243183
:20E9600020D3EC0134068D08D63F16FF7B7EEA05D654A68435203404D64F9E50DE5234542A
:20E980006EA49E74A6E0272681642703BDE8D19F3D3504815A2719817D271554D70A3552D5
:20E9A000975C9F5DDF5F3504D761D854D762D64F39BDFBFB0F069D7C24037EF45DBDEB2B4C
:20E9C0002450812E27F481A7274081A627E38122260A9E83BDECA19E649F833981A3260D47
:20E9E000865ABDE8E8BDEB7643537EEC7D4C272E8D06BDE8E4C6298CC6288CC62CE19F00EB
:20EA00008326020E7CC6027EE408867DBDE8E87EF634BDEAE09F52960626957EF35F9D7C9F
:20EA20001F89589D7CC13823037EEA053404C12A251EC130241C8DC0A6E4BDE8E48DBCBD34
:20EA4000E8D43502DE523442BDEE94350234068E8D9E3504BEE0FB3AAD947EE8D1864F97C4
:20EA600003BDEB76DD01BDF395BDEB760D0326069401D40220049A01DA027EEC7DBDE8D690
:20EA8000261096618A7F945D975D8E005CBDF3E120360F060A3FBDEDE0D7569F589E5FBDC4
:20EAA000EDE296563404A0E0270786012403D656409754DE585C5A2604D654200BA680A17E
:20EAC000C027F3C6FF240150CB0159D40A2702C6FF7EF3C7BDE9FBC6018D089D8226F53989
:20EAE0005F9D82D70597379D828D401025FF165FD7069D7C25048D33250A1F899D7C25FC69
:20EB00008D2924F8812426060306CB809D7CD7389A088028102700750F089E1BDC379C1D44
:20EB2000271210A381273E300520F381412504805B80A5398E0074EEE41183EA152728DC05
:20EB40001FDD43C30007DD419E1D9F47BDE3E09E419F1F9E459F1D9E47DC37ED814F5FED30
:20EB600084ED02A7049F393990800000009D7CBDE8CF96542B5DBDE8D1964F819025088E30
:20EB8000EB68BDF3E1264CBDF413DC5239DC053406125F9E3734148DD435349F37DE523447
:20EBA000605C9D82812C27EBD703BDE9F53506DD059E1D9C1F2721DC3710A3842706EC0206
:20EBC000308B20EFC6129605260BD603E1042759C6108CC6087EE408CC0005DD64DC37EDDD
:20EBE00084D603E704BDE3F59F41C60B4F0D0527053506C30001ED058D5DDD6430020A039F
:20EC000026E89F0FD30F1025F7FC1F01BDE3F9830035DD1F4F301FA7059C0F26F89E419639
:20EC20001F9341ED029605262DE604D7034F5FDD643506DD5210A305243ADE6427048D17C0
:20EC4000D35230020A0326E7EDE358495849E3E1308B30059F393986109745EC05DD174FC6
:20EC60005F5849250F086509642404D31725050A4526EE397EEBD01F40931F214F0F06DD02
:20EC800050C6907EF3CDBDE8D1CE01F0BDF52732628E01EF200B9F4D8D5C9F58D7563930E3
:20ECA0001F86229701970230019F629F58C6FF5CA680270C91012704910226F38122270284
:20ECC000301F9F64D756DE62118301F022078DC69E62BDEDCE9E0B8C00F12605C61E7EE465
:20ECE000089656A700DC58ED0286FF97069F0D9F5230059F0B390F074F3406DC23A3E0104E
:20ED00009321250ADD239E2330019F253584C61A030727CA8D04350420DE9E279F234F5FC9
:20ED2000DD4B9E219F478E00C99C0B27048D3220F89E1B9C1D27048D2220F89F419E419C47
:20ED40001F2735EC02D341DD41A6012AF0E60458CB053A9C4127E88D0820F8A60130022A6F
:20ED600014E6842710EC02109323220910934723049F4BDD473005399E4B27FB4FE6845A54
:20ED8000D347DD439E239F41BDE3E29E4BDC45ED029E45301F7EED1CDC523406BDE9B1BDE8
:20EDA000E8D435109F62E6849E52EB842405C61C7EE408BDEC969E62E6848D109E4D8D2233
:20EDC0008D0C9E628D1CBDECD57EE8F6AE02DE255C2004A680A7C05A26F9DF2539BDE8D428
:20EDE0009E52E6848D182613AE07301F9C2326083404D323DD233504300139AE02399C0D87
:20EE000026079F0B301B9F0D4F398D037EEC7C8DCC0F065D39BDEE97C601BDECF69653BDD4
:20EE2000EC9AA78432627EECD58D0220DF8DE0275EE684398D484FE1842303E6844F340689
:20EE4000BDEC989E4D8D9B35043A3504BDEDCE20D58D2BA0844020DFC6FFD7539D82812972
:20EE60002705BDE9FB8D2D8D1527245F4AA18424CD1F89E08450D15323C4D65320C0BDE949
:20EE8000F5EEE4AE659F4DA664E66432671F357EEBD39D7CBDE8CFBDEB724D26F20E82BDD6
:20EEA000EE0F102702DEDE839F833AA68434526F849D82BDF45D3552A784DF83398D079F31
:20EEC0002BBDE9FB20CEBDE8CF96542BC2964F819022BCBDF4139E52398DEEE6847EEC7CA1
:20EEE0008DDB9E2BE784393401BDE719BDE4A79F66350127129D82271381A726099D7C279F
:20EF000006BDE719270639CEFFFFDF2B32629E66BDF0ABBDE19CEC8426037EE4279F66ECB5
:20EF20000210932B22F4BDF517BDF0F79E668D10AE9F0066CE00F4A6C027D5BDF0FC20F746
:20EF40003004108E00F4A68027512B15813A260DE684C18427F0C18327EC8C86218D3020F2
:20EF6000E5CEE0E981FF2604A6803345847F334A6DC427E7A0C42AF6ABC4EE414A2B066D04
:20EF8000C02AFC20F7A6C48D066DC02AF820B7108C01ED2406847FA7A06FA4399E83CE0018
:20EFA000F30F430F44A68027210D43270FBDEB2B241881302504813923100F438120270ACB
:20EFC0009742812227380D442719A7C02706813A27CF20D16FC06FC01F308300F18E00F2EE
:20EFE0009F8339813F2604868720DF81272613CC3A83EDC10F42A68027D0914227CCA7C00D
:20F0000020F481302504813C25C0301F34500F41CEE0E90F42334AA6C4273110AE41AEE485
:20F02000E6A0E08027FAC180263832623540DA4296412606C1842606863AEDC12094E7C0C8
:20F04000C18626020C44C18227AA2086CEE0EE034126C03550A680A7C0BDEB2B25EC034335
:20F0600020E80C424A27AE313FE6A02AFC20AF27368D0139273E819F2753812C2737813B46
:20F080002760BDE8E4960634022606BDF524BDEC9F8D573504BDE1355D26089D82812C27D6
:20F0A000148D549D8226CF860D2051BDE13527F7966C26F339BDE135270AD66CD16B250651
:20F0C0008DE5201ED66CD06A24FC502010BDEE9281291026F92FBDE135D06C23058D185AE9
:20F0E00026FB9D7C7EF074BDECA1BDEDE05C5A27C3A6808D0720F786208C863F7EE0148EB8
:20F10000F60B2009BDF27A035403622003BDF27A5D102702808E005C1F895D276CD04F27B6
:20F1200069250A974F966197548E004F50C1F82F594F6401BDF205D6622A0B630163026300
:20F1400003630443890097639653996097539652995F97529651995E97519650995D975061
:20F160005D2A4425028D5D5F9650262E965197509652975196539752966397530F63CB0882
:20F18000C1282DE44F974F9754398D6D5F20A85C086309530952095109502AF3964F340490
:20F1A000A0E0974F23DE8C2508086386009763200C0C4F2728065006510652065324048D5B
:20F1C0000D27EE39035403500351035203539E5230019F5226069E5030019F5039C60A7E58
:20F1E000E4088E0012A6049763A603A704A602A703A601A702965BA701CB082FE89663C0AD
:20F2000008270C6701660266036604465C26F43981000000008D6327608D78860097139757
:20F220001497159716D6538D22D663D78BD6528D1AD663D78AD6518D12D663D789D6508D73
:20F240000CD663D788BDF3567EF1672795439613562726241696169B6097169615995F971B
:20F26000159614995E97149613995D46971306140615061606634F20D539EC0197618A8078
:20F28000DD5DD661D854D762EC03DD5FA684975CD64F394D27169B4F464928108B80974FC6
:20F2A000270C966297543996544320023262102AFED27EF1DDBDF3AA270D8B0225F40F6221
:20F2C000BDF1180C4F27EB398420000000BDF3AA8EF2C85FD762BDF35F8C8D9E2773004F35
:20F2E0008DB10C4F27CC8E0013C604D703C6019650915D26139651915E260D9652915F2662
:20F3000007965391602601431FA859240AE7800A032B34272EC6011F8A250E0860095F09B0
:20F320005E095D25E32BC820DF966090539760965F9252975F965E9251975E965D92509738
:20F340005D20D8C64020D0565656D7638D087EF167C6147EE4089E139F509E159F523934C6
:20F3600002EC0197548A80DD500F63E684AE039F52D74F35828E004520068E00408C9E3BF5
:20F38000964FA78496548A7F9450A7019651A702DE52EF0339966197549E5C9F4F0F639621
:20F3A0005E975196549E5F9F5239DC4FDD5C9E519F5E9E539F604D39D64F2708D65459C693
:20F3C000FF250150398DF1D7500F51C68896508080D74FDC74DD52976397547EF1630F5487
:20F3E00039E68427D3E601D8542BD1D64FE184261DE601CA7FD450E1012613D651E10226F5
:20F400000DD652E1032607D653E00426013956D85420ABD64F273DC0A096542A05035BBDCF
:20F42000F1C68E004FC1F82E06BDF1F90F5B390F5B96544906507EF205D64FC1A0241D8D45
:20F44000D2D7639654D754808086A0974F965397017EF163D750D751D752D753399E749FA0
:20F46000549F4F9F519F529F479F452564BDFB9A812D260403552004812B26049D7C25510B
:20F48000812E2728814526289D7C256481A7270E812D270A81A62708812B270420060348DE
:20F4A0009D7C254C0D48270800472004034626CC96479045974727122A09BDF2CD0C4726A7
:20F4C000F92007BDF2B50A4726F996552A8E7EF634D645D046D7453402BDF2B53504C030DD
:20F4E0008D022098BDF37ABDF3C78E00407EF10DD6475858DB475880303404ABE097472022
:20F500009F9B3EBC1FFD9E6E6B27FD9E6E6B28008EE3A98D0CDC68DD50C69043BDF3D18D96
:20F52000037EF0E7CE01F18620D6542A02862DA7C0DF6497548630D64F102700C64FC18007
:20F5400022088EF50BBDF21586F797458EF506BDF3EB2E0F8EF501BDF3EB2E0EBDF2B50AAC
:20F560004520F1BDF2CD0C4520E2BDF0FFBDF413C60196458B0A2B09810B24054A1F89865E
:20F58000024A4A9747D7452E0DDE64862EA7C05D27048630A7C08EF610C6809653AB039796
:20F5A000539652A90297529651A90197519650A98497505C565928E32403C00B50CB2F3087
:20F5C000041F98847FA7C00A452604862EA7C053C4808CF63426C4A6C2813027FA812E262C
:20F5E00002335F862BD647271C2A03862D50A7428645A741862F4CC00A24FBCB3AED436F0C
:20F60000452004A7C46F418E01F1398000000000FA0A1F0000989680FFF0BDC0000186A0C9
:20F62000FFFFD8F0000003E8FFFFFF9C0000000AFFFFFFFF964F27020354399F64BDF37AAF
:20F640008D058D088E00407EF2159F64BDF3759E64E680D7559F648DEE9E6430059F64BDFF
:20F66000F10D8E00450A5526EE39BDF3B82B1F27158D10BDF37A8D0E8E00408DCA8EF21008
:20F68000BDF10D7EF4399EB19F509EB39F52BEF6BB9F5DBEF6BD9F5FBDF21BDC8AC3658BC7
:20F6A000DDB3DD52DC88C9B08905DDB1DD500F548680974F961597637EF16740E64DABBDC0
:20F6C000F3AA8EF704D661BDF2D4BDF3AA8DB40F62965CD64FBDF1078EF709BDF104965448
:20F6E00034022A09BDF0FF96542B05030ABDF6348EF709BDF10D35024D2A03BDF6348EF781
:20F700000E7EF63B83490FDAA27F000000000584E61A2D1B862807FBF88799688901872321
:20F7200035DFE186A55DE72883490FDAA2A154468F138F524389CD8EF76ABDF10D7EF6BFB2
:20F74000BDF37A0F0A8DF68E004ABDF3808E0040BDF35F0F54960A8D0C0D4F1027FA7E8EC9
:20F76000004A7EF2DA34027EF6ED81490FDAA2965434022A028D24964F3402818125058E37
:20F78000F2108DDE8EF79FBDF63B3502818125068EF76ABDF10435024D2A037EF634390B48
:20F7A00076B383BDD3791EF4A6F57B83FCB0107C0C1F67CA7CDE53CBC17D1464704C7DB737
:20F7C000EA517A7D6330887E7E9244993A7E4CCC91C77FAAAAAA138100000000037F5E5602
:20F7E000CB7980139B0B6480763893168238AA3B20803504F334813504F3348080000000D1
:20F8000080317217F8BDF3B8102FF3C78EF7F1964F808034028680974FBDF10D8EF7F6BDE5
:20F82000F2DA8EF210BDF1048EF7DCBDF63B8EF7FBBDF10D3504BDF4E48EF8007EF215BD9A
:20F84000F3AA8EF60BBDF35F27674D26037EF1858E004ABDF3805F96612A10BDF4398E0065
:20F860004A9661BDF3EB260343D601BDF3973404BDF8058E004ABDF2158D3635024610251F
:20F88000FDB2398138AA3B29077134583E5674167EB31B772FEEE3857A1D841C2A7C6359B6
:20F8A000580A7E75FDE7C6803172181081000000008EF883BDF215BDF37A964F8188250370
:20F8C0007EF2A7BDF43996018B8127F44A34028E0040BDF1048EF888BDF64A0F623502BDF9
:20F8E000F29339BDF3B82B037EF43903548DF97EF634BDFD20326286019798BDE4A71025E3
:20F90000ED82BDEF401F208300F5D797DC2BBDF517BDF0F78E00F4D69826255FBDFA46BD9F
:20F92000FF78250B80303402860A3DEBE020EDC001C90181412605BDF0A720BB814C260BF0
:20F940008D310F98BDF0A720C33262810D260D8D22BDF0A78E00F49F837EE450814527F17F
:20F9600081512606BDF0A77EE4278D0220AD812026108CC6F9A6842708BDE01430015A2673
:20F98000F439814426486D8427F78D045A26F7390A97311F3121A621A7A426F8398149271A
:20F9A000138158270D8148265C6F841F108300F5D7978DBFBDFA46810D278E811B272581DF
:20F9C0000826228C00F427EC8D458DC420E6814326CB6D84270EBDFA46250220F5A7808D53
:20F9E000375A26EE39D697C1F9260220C734106D8026FCE682E701ACE426F83262A7808D5A
:20FA0000170C9720AF810826128D045A26FB398C00F427D0301F86087EE014814B27058019
:20FA20005327013934028D1E3402A68427166D6126068DE430012003BDF990A684A1E426BA
:20FA4000E95A26E635A0BDE000817F24F9815F2602861B810D270E811B270A810827068158
:20FA60002025E31A0139864F978C398600D6791D7EEC7DBDE9F8DC1F3406BDEAE0BDE9F50B
:20FA800035061E109C1F26517EEC7D9D7CBDE9F8BDEAE03410EC021093212304932723129A
:20FAA000E684BDECF63410AE62BDEDCC3550AF423440BDEEC134045D271FC6FF81292703A9
:20FAC000BDEEC13404BDE9F5C6AEBDE9FD8D2E1F13AE62A684A06124037EEBD34CA1E42450
:20FAE00002A7E4A6611E89AE025A3A4D270DA1E42302A6E41F891E31BDE1B33596BDE8E436
:20FB00007EEDDDBDE9F8BDEE943404BDE9FBBDE8E4BDE9F596062605BDEE972003BDEE2DBF
:20FB20003404E661BDEC9835062705A7805A26FB7EEE24BDE9F8BDE8E4C601340496062684
:20FB400010BDEE97E7E42791BDE9FBBDE8E4BDE8D49E523410BDE9FBBDFAFD3414BDE9F5C1
:20FB6000AE63BDEDE23404E1662523A661271CE6665A3A3184EE62E661A6E4A0664CA161CD
:20FB8000250CA680A1C0260C5A26F7E666215F32677EEC7C6C66302120D98126265C3262E0
:20FBA0000F520F538E00529D7C814F2712814827239D82200C81381022EE4AC6038D2A9DE2
:20FBC0007C25F20F500F510F060F630F54C6A0D74F7EF1679D7C250BBDEB2B25E681472474
:20FBE000E28007C6048D0220EB680169841025F5EC5A26F58030AB01A7013935400F069EF2
:20FC0000839D7C8126279981B0275E81FF26089D7C8183102700AB9F836EC49E68300126CD
:20FC2000D9C6167EE408AE9F00838CFF83102700748D238DE6BDE9F8C680D708BDEAE08D22
:20FC400025BDE9F5C6AEBDE9FD9E4BDC83ED84DC39ED027EE692C6B0BDE9FDC680D7088A52
:20FC600080BDEAE59F4B7EE8D18DEB3410BDE9F08DF43540C632AE4227A9109E83EEC4DF95
:20FC800083A6043402EC84EE023476BDF380BDE8CF3576ED84EF023502A7049D821026ED22
:20FCA00064109F83399D7C8D0934108D2D3540AFC4395F9D7C240680301F899D7C9E8D5811
:20FCC0003A398DEEAE843410BDE9F08E004F96062707BDEDE09E52960639C6AEBDE9FD7E9F
:20FCE000EEC61027EEEDBDE719BDE4A79F939D82271081A7263B9D7C27048D24200486FF8A
:20FD0000972BDE938CEEC4ECC42706EC42932B23F49E938D15BDE4C79E93BDE4977EE42765
:20FD2000BDE7197EE1BCA6C0A78011931B26F79F1B39BDFC1B9D7C8122260BBDE9D2C63B55
:20FD4000BDE9FDBDF0EA327EBDE7CE3262BDEAE09F3BBDE8D48E00F34FBDECA57EE756BD43
:20FD6000E7199E2B399E919F2B7EE4A7BDE4CCCC000ADD95DD8F5FDD919D8224068DE09F3C
:20FD8000959D82271BBDE9FB24068DD39F919D82270EBDE9FB24068DC69F8F2749BDE1BCA8
:20FDA0008DC39F939E958DBF9C93253A8D1CBDFE40BDE4958DAF9F938D3A8D0F8D36BDFE8B
:20FDC000DBBDE4CCBDE4957EE427864F97989E93DC958D150D982602ED02AE848D0BD38FEC
:20FDE000250481FA25EE7EEBD33406EC84350626023262399E19301F30018DED3003300121
:20FE0000A68427F49F0F4A270C4A272A4A26EF8603A78020E7EC016A0227014FE6036A049A
:20FE200027015FED01DD2BBDE4A79E0F25E1DC476C80ED8420C66F84AE01AE029F4720EAA2
:20FE40009E1920049E8330018D9F300230019F839D7C4D27EF2AF99E8381FF27EF81A22724
:20FE6000128184270E818126E79D7C81A0270481A126DB9D7C25049D8220D79E833410BD25
:20FE8000E7199E83A682BDFF7825F930011F10E061C0052720250A3384503085BDFD2A202B
:20FEA000149F479E1B9F435030859F419F1BBDE3E09E459F8335108601A784A702A704D668
:20FEC0002B2604C6016C02E701D62C2604C6016C04E7039D82812C279A209C9E19301F30E4
:20FEE00001EC02DD68BDFDE930033001A68427EF4A271B800226F334108EFF38BDF0E7AE15
:20FF0000E4EC01BDF517BDF510BDF0A735103410EC01DD52BDFBC3BDF5243540C6053001CA
:20FF2000A68427055AA7C020F530C45D27BE31C433C5BDFD2A30A420B3554C2000BDEEC9B2
:20FF40008E01F0C60434045F860408530952594A26F85D260AA6E44A27058C01F0270CCBB8
:20FF600030C1392302CB07E7806F8435045A26D532628E01EF7EECA181302504803A80C681
:0AFF80003981891027FDAB7EEA05E8
:10FFF0000000009B009E00AA00A700A100A4E0460C
:00000001FF
